{
  "_format": "hh-sol-artifact-1",
  "contractName": "Lock",
  "sourceName": "contracts/Lock.sol",
  "abi": [
    {
      "inputs": [],
      "stateMutability": "nonpayable",
      "type": "constructor"
    },
    {
      "inputs": [
        {
          "internalType": "bool",
          "name": "isAccepted",
          "type": "bool"
        },
        {
          "internalType": "uint256",
          "name": "_id",
          "type": "uint256"
        }
      ],
      "name": "acceptRequest",
      "outputs": [],
      "stateMutability": "nonpayable",
      "type": "function"
    },
    {
      "inputs": [
        {
          "internalType": "string",
          "name": "name",
          "type": "string"
        },
        {
          "internalType": "uint256",
          "name": "premium",
          "type": "uint256"
        },
        {
          "internalType": "uint256",
          "name": "compensation",
          "type": "uint256"
        },
        {
          "internalType": "string",
          "name": "requirements",
          "type": "string"
        }
      ],
      "name": "addPolicy",
      "outputs": [],
      "stateMutability": "nonpayable",
      "type": "function"
    },
    {
      "inputs": [
        {
          "internalType": "uint256",
          "name": "id",
          "type": "uint256"
        }
      ],
      "name": "claimInsurance",
      "outputs": [],
      "stateMutability": "nonpayable",
      "type": "function"
    },
    {
      "inputs": [
        {
          "internalType": "address",
          "name": "patientAddress",
          "type": "address"
        },
        {
          "internalType": "string",
          "name": "details",
          "type": "string"
        }
      ],
      "name": "createRequest",
      "outputs": [],
      "stateMutability": "nonpayable",
      "type": "function"
    },
    {
      "inputs": [
        {
          "internalType": "uint256",
          "name": "id",
          "type": "uint256"
        },
        {
          "internalType": "bool",
          "name": "isAccept",
          "type": "bool"
        }
      ],
      "name": "decisonRequest",
      "outputs": [],
      "stateMutability": "nonpayable",
      "type": "function"
    },
    {
      "inputs": [],
      "name": "getClaimsRequest",
      "outputs": [
        {
          "components": [
            {
              "internalType": "address",
              "name": "user",
              "type": "address"
            },
            {
              "internalType": "uint256",
              "name": "policyId",
              "type": "uint256"
            },
            {
              "internalType": "string",
              "name": "details",
              "type": "string"
            },
            {
              "internalType": "string",
              "name": "status",
              "type": "string"
            }
          ],
          "internalType": "struct Lock.ClaimRequest[]",
          "name": "",
          "type": "tuple[]"
        }
      ],
      "stateMutability": "view",
      "type": "function"
    },
    {
      "inputs": [
        {
          "internalType": "address",
          "name": "_address",
          "type": "address"
        }
      ],
      "name": "getInsuranceCompanyDetails",
      "outputs": [
        {
          "components": [
            {
              "internalType": "address",
              "name": "walletAddress",
              "type": "address"
            },
            {
              "internalType": "string",
              "name": "name",
              "type": "string"
            },
            {
              "internalType": "uint256",
              "name": "ratings",
              "type": "uint256"
            },
            {
              "internalType": "uint256",
              "name": "totalClaims",
              "type": "uint256"
            },
            {
              "internalType": "uint256",
              "name": "toatlCustomers",
              "type": "uint256"
            },
            {
              "internalType": "uint256[]",
              "name": "policies",
              "type": "uint256[]"
            },
            {
              "internalType": "uint256[]",
              "name": "claimsRequest",
              "type": "uint256[]"
            }
          ],
          "internalType": "struct Lock.InsuranceCompany",
          "name": "",
          "type": "tuple"
        }
      ],
      "stateMutability": "view",
      "type": "function"
    },
    {
      "inputs": [],
      "name": "getInsurancePolicies",
      "outputs": [
        {
          "components": [
            {
              "internalType": "string",
              "name": "name",
              "type": "string"
            },
            {
              "internalType": "address",
              "name": "companyAddress",
              "type": "address"
            },
            {
              "internalType": "string",
              "name": "requirements",
              "type": "string"
            },
            {
              "internalType": "uint256",
              "name": "premium",
              "type": "uint256"
            },
            {
              "internalType": "uint256",
              "name": "compensation",
              "type": "uint256"
            },
            {
              "internalType": "uint256",
              "name": "totalSubscribers",
              "type": "uint256"
            },
            {
              "internalType": "uint256",
              "name": "totalClaims",
              "type": "uint256"
            },
            {
              "internalType": "address[]",
              "name": "currentSubscribers",
              "type": "address[]"
            }
          ],
          "internalType": "struct Lock.Policy[]",
          "name": "",
          "type": "tuple[]"
        }
      ],
      "stateMutability": "view",
      "type": "function"
    },
    {
      "inputs": [],
      "name": "getPatientsOfProvider",
      "outputs": [
        {
          "internalType": "address[]",
          "name": "",
          "type": "address[]"
        }
      ],
      "stateMutability": "view",
      "type": "function"
    },
    {
      "inputs": [],
      "name": "getPoliciesSubscribed",
      "outputs": [
        {
          "internalType": "uint256[]",
          "name": "",
          "type": "uint256[]"
        }
      ],
      "stateMutability": "view",
      "type": "function"
    },
    {
      "inputs": [
        {
          "internalType": "address",
          "name": "providerAddress",
          "type": "address"
        }
      ],
      "name": "getProvider",
      "outputs": [
        {
          "components": [
            {
              "internalType": "address",
              "name": "walletAddress",
              "type": "address"
            },
            {
              "internalType": "string",
              "name": "name",
              "type": "string"
            },
            {
              "internalType": "string",
              "name": "_address",
              "type": "string"
            },
            {
              "internalType": "string",
              "name": "providerType",
              "type": "string"
            },
            {
              "internalType": "address[]",
              "name": "patients",
              "type": "address[]"
            },
            {
              "internalType": "uint256",
              "name": "ratings",
              "type": "uint256"
            }
          ],
          "internalType": "struct Lock.Provider",
          "name": "",
          "type": "tuple"
        }
      ],
      "stateMutability": "view",
      "type": "function"
    },
    {
      "inputs": [],
      "name": "getProviderRequests",
      "outputs": [
        {
          "internalType": "uint256[]",
          "name": "",
          "type": "uint256[]"
        }
      ],
      "stateMutability": "view",
      "type": "function"
    },
    {
      "inputs": [
        {
          "internalType": "address",
          "name": "userAddress",
          "type": "address"
        }
      ],
      "name": "getUser",
      "outputs": [
        {
          "components": [
            {
              "internalType": "address",
              "name": "walletAddress",
              "type": "address"
            },
            {
              "internalType": "string",
              "name": "name",
              "type": "string"
            },
            {
              "internalType": "uint256",
              "name": "age",
              "type": "uint256"
            },
            {
              "internalType": "string",
              "name": "gender",
              "type": "string"
            },
            {
              "internalType": "string[]",
              "name": "medicalRecords",
              "type": "string[]"
            },
            {
              "internalType": "string[]",
              "name": "medicalProofs",
              "type": "string[]"
            },
            {
              "internalType": "bool",
              "name": "storeRecord",
              "type": "bool"
            },
            {
              "internalType": "uint256[]",
              "name": "providerRequests",
              "type": "uint256[]"
            },
            {
              "internalType": "uint256[]",
              "name": "proverRequests",
              "type": "uint256[]"
            },
            {
              "internalType": "uint256[]",
              "name": "policies",
              "type": "uint256[]"
            }
          ],
          "internalType": "struct Lock.User",
          "name": "",
          "type": "tuple"
        }
      ],
      "stateMutability": "view",
      "type": "function"
    },
    {
      "inputs": [
        {
          "internalType": "string",
          "name": "name",
          "type": "string"
        },
        {
          "internalType": "string",
          "name": "publicKey",
          "type": "string"
        }
      ],
      "name": "registerInsuranceCompany",
      "outputs": [],
      "stateMutability": "nonpayable",
      "type": "function"
    },
    {
      "inputs": [
        {
          "internalType": "string",
          "name": "name",
          "type": "string"
        },
        {
          "internalType": "string",
          "name": "_address",
          "type": "string"
        },
        {
          "internalType": "string",
          "name": "providerType",
          "type": "string"
        },
        {
          "internalType": "string",
          "name": "publicKey",
          "type": "string"
        }
      ],
      "name": "registerProvider",
      "outputs": [],
      "stateMutability": "nonpayable",
      "type": "function"
    },
    {
      "inputs": [
        {
          "internalType": "string",
          "name": "name",
          "type": "string"
        },
        {
          "internalType": "uint256",
          "name": "age",
          "type": "uint256"
        },
        {
          "internalType": "string",
          "name": "gender",
          "type": "string"
        },
        {
          "internalType": "bool",
          "name": "storeRecord",
          "type": "bool"
        },
        {
          "internalType": "string",
          "name": "publicKey",
          "type": "string"
        }
      ],
      "name": "registerUser",
      "outputs": [],
      "stateMutability": "nonpayable",
      "type": "function"
    },
    {
      "inputs": [
        {
          "internalType": "uint256",
          "name": "id",
          "type": "uint256"
        }
      ],
      "name": "subscribeInsuranceCompany",
      "outputs": [],
      "stateMutability": "nonpayable",
      "type": "function"
    }
  ],
  "bytecode": "0x608060405234801561001057600080fd5b506000600781905550600060088190555060006009819055506000600a819055506000600b819055506000600c81905550613f49806100506000396000f3fe608060405234801561001057600080fd5b506004361061010b5760003560e01c80636f77926b116100a2578063b24d82c011610071578063b24d82c0146102a2578063c8512f0e146102be578063ca2eb4d9146102dc578063e1d786bf146102fa578063f85920d8146103165761010b565b80636f77926b1461021c57806370562ffe1461024c578063801a555814610268578063a31d3cc2146102845761010b565b8063510b6c0a116100de578063510b6c0a1461019457806355f21eb7146101b257806362f188d8146101e25780636b51345b146101fe5761010b565b806302676895146101105780630d88d9801461012c57806328d2477b1461014857806346a444ed14610178575b600080fd5b61012a60048036038101906101259190612bd9565b610332565b005b61014660048036038101906101419190612d5f565b6103f4565b005b610162600480360381019061015d9190612e94565b6105e0565b60405161016f91906130b7565b60405180910390f35b610192600480360381019061018d91906130d9565b6107ef565b005b61019c610ba9565b6040516101a991906132d4565b60405180910390f35b6101cc60048036038101906101c79190612e94565b610e2e565b6040516101d99190613443565b60405180910390f35b6101fc60048036038101906101f79190613465565b61112b565b005b610206611321565b6040516102139190613573565b60405180910390f35b61023660048036038101906102319190612e94565b6113ef565b604051610243919061376a565b60405180910390f35b6102666004803603810190610261919061378c565b6118a1565b005b610282600480360381019061027d91906137b9565b611a41565b005b61028c611b03565b6040516102999190613868565b60405180910390f35b6102bc60048036038101906102b7919061388a565b611b9a565b005b6102c6611e19565b6040516102d39190613868565b60405180910390f35b6102e4611eb0565b6040516102f19190613a66565b60405180910390f35b610314600480360381019061030f9190613a88565b61227f565b005b610330600480360381019061032b919061378c565b6124c5565b005b8115610396576040518060400160405280600681526020017f61636365707400000000000000000000000000000000000000000000000000008152506005600083815260200190815260200160002060030190816103909190613d0c565b506103f0565b6040518060400160405280600781526020017f6465636c696e65000000000000000000000000000000000000000000000000008152506005600083815260200190815260200160002060030190816103ee9190613d0c565b505b5050565b6040518060c001604052803373ffffffffffffffffffffffffffffffffffffffff168152602001858152602001848152602001838152602001600067ffffffffffffffff81111561044857610447612c34565b5b6040519080825280602002602001820160405280156104765781602001602082028036833780820191505090505b5081526020016000815250600160003373ffffffffffffffffffffffffffffffffffffffff1673ffffffffffffffffffffffffffffffffffffffff16815260200190815260200160002060008201518160000160006101000a81548173ffffffffffffffffffffffffffffffffffffffff021916908373ffffffffffffffffffffffffffffffffffffffff160217905550602082015181600101908161051c9190613d0c565b5060408201518160020190816105329190613d0c565b5060608201518160030190816105489190613d0c565b506080820151816004019080519060200190610565929190612803565b5060a0820151816005015590505080600360003373ffffffffffffffffffffffffffffffffffffffff1673ffffffffffffffffffffffffffffffffffffffff16815260200190815260200160002090816105bf9190613d0c565b506001600860008282546105d39190613e0d565b9250508190555050505050565b6105e861288d565b600260008373ffffffffffffffffffffffffffffffffffffffff1673ffffffffffffffffffffffffffffffffffffffff1681526020019081526020016000206040518060e00160405290816000820160009054906101000a900473ffffffffffffffffffffffffffffffffffffffff1673ffffffffffffffffffffffffffffffffffffffff1673ffffffffffffffffffffffffffffffffffffffff16815260200160018201805461069890613b2f565b80601f01602080910402602001604051908101604052809291908181526020018280546106c490613b2f565b80156107115780601f106106e657610100808354040283529160200191610711565b820191906000526020600020905b8154815290600101906020018083116106f457829003601f168201915b505050505081526020016002820154815260200160038201548152602001600482015481526020016005820180548060200260200160405190810160405280929190818152602001828054801561078757602002820191906000526020600020905b815481526020019060010190808311610773575b50505050508152602001600682018054806020026020016040519081016040528092919081815260200182805480156107df57602002820191906000526020600020905b8154815260200190600101908083116107cb575b5050505050815250509050919050565b60006040518061014001604052803373ffffffffffffffffffffffffffffffffffffffff168152602001878152602001868152602001858152602001600067ffffffffffffffff81111561084657610845612c34565b5b60405190808252806020026020018201604052801561087957816020015b60608152602001906001900390816108645790505b508152602001600067ffffffffffffffff81111561089a57610899612c34565b5b6040519080825280602002602001820160405280156108cd57816020015b60608152602001906001900390816108b85790505b5081526020018415158152602001600067ffffffffffffffff8111156108f6576108f5612c34565b5b6040519080825280602002602001820160405280156109245781602001602082028036833780820191505090505b508152602001600067ffffffffffffffff81111561094557610944612c34565b5b6040519080825280602002602001820160405280156109735781602001602082028036833780820191505090505b508152602001600067ffffffffffffffff81111561099457610993612c34565b5b6040519080825280602002602001820160405280156109c25781602001602082028036833780820191505090505b508152509050806000803373ffffffffffffffffffffffffffffffffffffffff1673ffffffffffffffffffffffffffffffffffffffff16815260200190815260200160002060008201518160000160006101000a81548173ffffffffffffffffffffffffffffffffffffffff021916908373ffffffffffffffffffffffffffffffffffffffff1602179055506020820151816001019081610a639190613d0c565b50604082015181600201556060820151816003019081610a839190613d0c565b506080820151816004019080519060200190610aa09291906128e0565b5060a0820151816005019080519060200190610abd9291906128e0565b5060c08201518160060160006101000a81548160ff02191690831515021790555060e0820151816007019080519060200190610afa929190612939565b50610100820151816008019080519060200190610b18929190612939565b50610120820151816009019080519060200190610b36929190612939565b5090505081600360003373ffffffffffffffffffffffffffffffffffffffff1673ffffffffffffffffffffffffffffffffffffffff1681526020019081526020016000209081610b869190613d0c565b50600160076000828254610b9a9190613e0d565b92505081905550505050505050565b60606000600260003373ffffffffffffffffffffffffffffffffffffffff1673ffffffffffffffffffffffffffffffffffffffff16815260200190815260200160002060060180549050905060008167ffffffffffffffff811115610c1157610c10612c34565b5b604051908082528060200260200182016040528015610c4a57816020015b610c37612986565b815260200190600190039081610c2f5790505b50905060005b82811015610e2557600660008281526020019081526020016000206040518060800160405290816000820160009054906101000a900473ffffffffffffffffffffffffffffffffffffffff1673ffffffffffffffffffffffffffffffffffffffff1673ffffffffffffffffffffffffffffffffffffffff16815260200160018201548152602001600282018054610ce690613b2f565b80601f0160208091040260200160405190810160405280929190818152602001828054610d1290613b2f565b8015610d5f5780601f10610d3457610100808354040283529160200191610d5f565b820191906000526020600020905b815481529060010190602001808311610d4257829003601f168201915b50505050508152602001600382018054610d7890613b2f565b80601f0160208091040260200160405190810160405280929190818152602001828054610da490613b2f565b8015610df15780601f10610dc657610100808354040283529160200191610df1565b820191906000526020600020905b815481529060010190602001808311610dd457829003601f168201915b505050505081525050828281518110610e0d57610e0c613e41565b5b60200260200101819052508080600101915050610c50565b50809250505090565b610e366129c4565b600160008373ffffffffffffffffffffffffffffffffffffffff1673ffffffffffffffffffffffffffffffffffffffff1681526020019081526020016000206040518060c00160405290816000820160009054906101000a900473ffffffffffffffffffffffffffffffffffffffff1673ffffffffffffffffffffffffffffffffffffffff1673ffffffffffffffffffffffffffffffffffffffff168152602001600182018054610ee690613b2f565b80601f0160208091040260200160405190810160405280929190818152602001828054610f1290613b2f565b8015610f5f5780601f10610f3457610100808354040283529160200191610f5f565b820191906000526020600020905b815481529060010190602001808311610f4257829003601f168201915b50505050508152602001600282018054610f7890613b2f565b80601f0160208091040260200160405190810160405280929190818152602001828054610fa490613b2f565b8015610ff15780601f10610fc657610100808354040283529160200191610ff1565b820191906000526020600020905b815481529060010190602001808311610fd457829003601f168201915b5050505050815260200160038201805461100a90613b2f565b80601f016020809104026020016040519081016040528092919081815260200182805461103690613b2f565b80156110835780601f1061105857610100808354040283529160200191611083565b820191906000526020600020905b81548152906001019060200180831161106657829003601f168201915b505050505081526020016004820180548060200260200160405190810160405280929190818152602001828054801561111157602002820191906000526020600020905b8160009054906101000a900473ffffffffffffffffffffffffffffffffffffffff1673ffffffffffffffffffffffffffffffffffffffff16815260200190600101908083116110c7575b505050505081526020016005820154815250509050919050565b6040518061010001604052808581526020013373ffffffffffffffffffffffffffffffffffffffff1681526020018281526020018481526020018381526020016000815260200160008152602001600067ffffffffffffffff81111561119457611193612c34565b5b6040519080825280602002602001820160405280156111c25781602001602082028036833780820191505090505b5081525060046000600a54815260200190815260200160002060008201518160000190816111f09190613d0c565b5060208201518160010160006101000a81548173ffffffffffffffffffffffffffffffffffffffff021916908373ffffffffffffffffffffffffffffffffffffffff160217905550604082015181600201908161124d9190613d0c565b50606082015181600301556080820151816004015560a0820151816005015560c0820151816006015560e0820151816007019080519060200190611292929190612803565b50905050600260003373ffffffffffffffffffffffffffffffffffffffff1673ffffffffffffffffffffffffffffffffffffffff168152602001908152602001600020600501600a5490806001815401808255809150506001900390600052602060002001600090919091909150556001600a60008282546113149190613e0d565b9250508190555050505050565b6060600160003373ffffffffffffffffffffffffffffffffffffffff1673ffffffffffffffffffffffffffffffffffffffff1681526020019081526020016000206004018054806020026020016040519081016040528092919081815260200182805480156113e557602002820191906000526020600020905b8160009054906101000a900473ffffffffffffffffffffffffffffffffffffffff1673ffffffffffffffffffffffffffffffffffffffff168152602001906001019080831161139b575b5050505050905090565b6113f7612a10565b6000808373ffffffffffffffffffffffffffffffffffffffff1673ffffffffffffffffffffffffffffffffffffffff168152602001908152602001600020604051806101400160405290816000820160009054906101000a900473ffffffffffffffffffffffffffffffffffffffff1673ffffffffffffffffffffffffffffffffffffffff1673ffffffffffffffffffffffffffffffffffffffff1681526020016001820180546114a790613b2f565b80601f01602080910402602001604051908101604052809291908181526020018280546114d390613b2f565b80156115205780601f106114f557610100808354040283529160200191611520565b820191906000526020600020905b81548152906001019060200180831161150357829003601f168201915b505050505081526020016002820154815260200160038201805461154390613b2f565b80601f016020809104026020016040519081016040528092919081815260200182805461156f90613b2f565b80156115bc5780601f10611591576101008083540402835291602001916115bc565b820191906000526020600020905b81548152906001019060200180831161159f57829003601f168201915b5050505050815260200160048201805480602002602001604051908101604052809291908181526020016000905b8282101561169657838290600052602060002001805461160990613b2f565b80601f016020809104026020016040519081016040528092919081815260200182805461163590613b2f565b80156116825780601f1061165757610100808354040283529160200191611682565b820191906000526020600020905b81548152906001019060200180831161166557829003601f168201915b5050505050815260200190600101906115ea565b50505050815260200160058201805480602002602001604051908101604052809291908181526020016000905b8282101561176f5783829060005260206000200180546116e290613b2f565b80601f016020809104026020016040519081016040528092919081815260200182805461170e90613b2f565b801561175b5780601f106117305761010080835404028352916020019161175b565b820191906000526020600020905b81548152906001019060200180831161173e57829003601f168201915b5050505050815260200190600101906116c3565b5050505081526020016006820160009054906101000a900460ff16151515158152602001600782018054806020026020016040519081016040528092919081815260200182805480156117e157602002820191906000526020600020905b8154815260200190600101908083116117cd575b505050505081526020016008820180548060200260200160405190810160405280929190818152602001828054801561183957602002820191906000526020600020905b815481526020019060010190808311611825575b505050505081526020016009820180548060200260200160405190810160405280929190818152602001828054801561189157602002820191906000526020600020905b81548152602001906001019080831161187d575b5050505050815250509050919050565b6000803373ffffffffffffffffffffffffffffffffffffffff1673ffffffffffffffffffffffffffffffffffffffff16815260200190815260200160002060090181908060018154018082558091505060019003906000526020600020016000909190919091505560016004600083815260200190815260200160002060050160008282546119309190613e0d565b9250508190555060046000828152602001908152602001600020600701339080600181540180825580915050600190039060005260206000200160009091909190916101000a81548173ffffffffffffffffffffffffffffffffffffffff021916908373ffffffffffffffffffffffffffffffffffffffff1602179055506001600260006004600085815260200190815260200160002060010160009054906101000a900473ffffffffffffffffffffffffffffffffffffffff1673ffffffffffffffffffffffffffffffffffffffff1673ffffffffffffffffffffffffffffffffffffffff1681526020019081526020016000206004016000828254611a379190613e0d565b9250508190555050565b8015611aa5576040518060400160405280600681526020017f6163636570740000000000000000000000000000000000000000000000000000815250600560008481526020019081526020016000206003019081611a9f9190613d0c565b50611aff565b6040518060400160405280600781526020017f6465636c696e6500000000000000000000000000000000000000000000000000815250600560008481526020019081526020016000206003019081611afd9190613d0c565b505b5050565b60606000803373ffffffffffffffffffffffffffffffffffffffff1673ffffffffffffffffffffffffffffffffffffffff168152602001908152602001600020600701805480602002602001604051908101604052809291908181526020018280548015611b9057602002820191906000526020600020905b815481526020019060010190808311611b7c575b5050505050905090565b60405180608001604052808373ffffffffffffffffffffffffffffffffffffffff1681526020013373ffffffffffffffffffffffffffffffffffffffff1681526020018281526020016040518060400160405280600781526020017f50656e64696e670000000000000000000000000000000000000000000000000081525081525060056000600b54815260200190815260200160002060008201518160000160006101000a81548173ffffffffffffffffffffffffffffffffffffffff021916908373ffffffffffffffffffffffffffffffffffffffff16021790555060208201518160010160006101000a81548173ffffffffffffffffffffffffffffffffffffffff021916908373ffffffffffffffffffffffffffffffffffffffff1602179055506040820151816002019081611cd49190613d0c565b506060820151816003019081611cea9190613d0c565b509050506000803373ffffffffffffffffffffffffffffffffffffffff1673ffffffffffffffffffffffffffffffffffffffff168152602001908152602001600020600701600b549080600181540180825580915050600190039060005260206000200160009091909190915055600160003373ffffffffffffffffffffffffffffffffffffffff1673ffffffffffffffffffffffffffffffffffffffff168152602001908152602001600020600401829080600181540180825580915050600190039060005260206000200160009091909190916101000a81548173ffffffffffffffffffffffffffffffffffffffff021916908373ffffffffffffffffffffffffffffffffffffffff1602179055506001600b6000828254611e0e9190613e0d565b925050819055505050565b60606000803373ffffffffffffffffffffffffffffffffffffffff1673ffffffffffffffffffffffffffffffffffffffff168152602001908152602001600020600901805480602002602001604051908101604052809291908181526020018280548015611ea657602002820191906000526020600020905b815481526020019060010190808311611e92575b5050505050905090565b60606000600260003373ffffffffffffffffffffffffffffffffffffffff1673ffffffffffffffffffffffffffffffffffffffff1681526020019081526020016000206005018054905067ffffffffffffffff811115611f1357611f12612c34565b5b604051908082528060200260200182016040528015611f4c57816020015b611f39612a7b565b815260200190600190039081611f315790505b50905060005b600260003373ffffffffffffffffffffffffffffffffffffffff1673ffffffffffffffffffffffffffffffffffffffff168152602001908152602001600020600501805490508110156122775760046000600260003373ffffffffffffffffffffffffffffffffffffffff1673ffffffffffffffffffffffffffffffffffffffff1681526020019081526020016000206005018381548110611ff757611ff6613e41565b5b906000526020600020015481526020019081526020016000206040518061010001604052908160008201805461202c90613b2f565b80601f016020809104026020016040519081016040528092919081815260200182805461205890613b2f565b80156120a55780601f1061207a576101008083540402835291602001916120a5565b820191906000526020600020905b81548152906001019060200180831161208857829003601f168201915b505050505081526020016001820160009054906101000a900473ffffffffffffffffffffffffffffffffffffffff1673ffffffffffffffffffffffffffffffffffffffff1673ffffffffffffffffffffffffffffffffffffffff16815260200160028201805461211490613b2f565b80601f016020809104026020016040519081016040528092919081815260200182805461214090613b2f565b801561218d5780601f106121625761010080835404028352916020019161218d565b820191906000526020600020905b81548152906001019060200180831161217057829003601f168201915b50505050508152602001600382015481526020016004820154815260200160058201548152602001600682015481526020016007820180548060200260200160405190810160405280929190818152602001828054801561224357602002820191906000526020600020905b8160009054906101000a900473ffffffffffffffffffffffffffffffffffffffff1673ffffffffffffffffffffffffffffffffffffffff16815260200190600101908083116121f9575b50505050508152505082828151811061225f5761225e613e41565b5b60200260200101819052508080600101915050611f52565b508091505090565b60006040518060e001604052803373ffffffffffffffffffffffffffffffffffffffff168152602001848152602001600081526020016000815260200160008152602001600067ffffffffffffffff8111156122de576122dd612c34565b5b60405190808252806020026020018201604052801561230c5781602001602082028036833780820191505090505b508152602001600067ffffffffffffffff81111561232d5761232c612c34565b5b60405190808252806020026020018201604052801561235b5781602001602082028036833780820191505090505b50815250905080600260003373ffffffffffffffffffffffffffffffffffffffff1673ffffffffffffffffffffffffffffffffffffffff16815260200190815260200160002060008201518160000160006101000a81548173ffffffffffffffffffffffffffffffffffffffff021916908373ffffffffffffffffffffffffffffffffffffffff16021790555060208201518160010190816123fd9190613d0c565b5060408201518160020155606082015181600301556080820151816004015560a0820151816005019080519060200190612438929190612939565b5060c0820151816006019080519060200190612455929190612939565b5090505081600360003373ffffffffffffffffffffffffffffffffffffffff1673ffffffffffffffffffffffffffffffffffffffff16815260200190815260200160002090816124a59190613d0c565b506001600960008282546124b99190613e0d565b92505081905550505050565b80336000805b6004600085815260200190815260200160002060070180549050811015612587578273ffffffffffffffffffffffffffffffffffffffff1660046000868152602001908152602001600020600701828154811061252b5761252a613e41565b5b9060005260206000200160009054906101000a900473ffffffffffffffffffffffffffffffffffffffff1673ffffffffffffffffffffffffffffffffffffffff160361257a5760019150612587565b80806001019150506124cb565b50806125c8576040517f08c379a00000000000000000000000000000000000000000000000000000000081526004016125bf90613ef3565b60405180910390fd5b60405180608001604052803373ffffffffffffffffffffffffffffffffffffffff1681526020018581526020016040518060200160405280600081525081526020016040518060400160405280600781526020017f50656e64696e670000000000000000000000000000000000000000000000000081525081525060066000600c54815260200190815260200160002060008201518160000160006101000a81548173ffffffffffffffffffffffffffffffffffffffff021916908373ffffffffffffffffffffffffffffffffffffffff1602179055506020820151816001015560408201518160020190816126be9190613d0c565b5060608201518160030190816126d49190613d0c565b50905050600260006004600087815260200190815260200160002060010160009054906101000a900473ffffffffffffffffffffffffffffffffffffffff1673ffffffffffffffffffffffffffffffffffffffff1673ffffffffffffffffffffffffffffffffffffffff168152602001908152602001600020600601600c5490806001815401808255809150506001900390600052602060002001600090919091909150556000803373ffffffffffffffffffffffffffffffffffffffff1673ffffffffffffffffffffffffffffffffffffffff168152602001908152602001600020600801600c5490806001815401808255809150506001900390600052602060002001600090919091909150556001600c60008282546127f69190613e0d565b9250508190555050505050565b82805482825590600052602060002090810192821561287c579160200282015b8281111561287b5782518260006101000a81548173ffffffffffffffffffffffffffffffffffffffff021916908373ffffffffffffffffffffffffffffffffffffffff16021790555091602001919060010190612823565b5b5090506128899190612ad6565b5090565b6040518060e00160405280600073ffffffffffffffffffffffffffffffffffffffff1681526020016060815260200160008152602001600081526020016000815260200160608152602001606081525090565b828054828255906000526020600020908101928215612928579160200282015b828111156129275782518290816129179190613d0c565b5091602001919060010190612900565b5b5090506129359190612af3565b5090565b828054828255906000526020600020908101928215612975579160200282015b82811115612974578251825591602001919060010190612959565b5b5090506129829190612ad6565b5090565b6040518060800160405280600073ffffffffffffffffffffffffffffffffffffffff1681526020016000815260200160608152602001606081525090565b6040518060c00160405280600073ffffffffffffffffffffffffffffffffffffffff16815260200160608152602001606081526020016060815260200160608152602001600081525090565b604051806101400160405280600073ffffffffffffffffffffffffffffffffffffffff16815260200160608152602001600081526020016060815260200160608152602001606081526020016000151581526020016060815260200160608152602001606081525090565b60405180610100016040528060608152602001600073ffffffffffffffffffffffffffffffffffffffff1681526020016060815260200160008152602001600081526020016000815260200160008152602001606081525090565b5b80821115612aef576000816000905550600101612ad7565b5090565b5b80821115612b135760008181612b0a9190612b17565b50600101612af4565b5090565b508054612b2390613b2f565b6000825580601f10612b355750612b54565b601f016020900490600052602060002090810190612b539190612ad6565b5b50565b6000604051905090565b600080fd5b600080fd5b60008115159050919050565b612b8081612b6b565b8114612b8b57600080fd5b50565b600081359050612b9d81612b77565b92915050565b6000819050919050565b612bb681612ba3565b8114612bc157600080fd5b50565b600081359050612bd381612bad565b92915050565b60008060408385031215612bf057612bef612b61565b5b6000612bfe85828601612b8e565b9250506020612c0f85828601612bc4565b9150509250929050565b600080fd5b600080fd5b6000601f19601f8301169050919050565b7f4e487b7100000000000000000000000000000000000000000000000000000000600052604160045260246000fd5b612c6c82612c23565b810181811067ffffffffffffffff82111715612c8b57612c8a612c34565b5b80604052505050565b6000612c9e612b57565b9050612caa8282612c63565b919050565b600067ffffffffffffffff821115612cca57612cc9612c34565b5b612cd382612c23565b9050602081019050919050565b82818337600083830152505050565b6000612d02612cfd84612caf565b612c94565b905082815260208101848484011115612d1e57612d1d612c1e565b5b612d29848285612ce0565b509392505050565b600082601f830112612d4657612d45612c19565b5b8135612d56848260208601612cef565b91505092915050565b60008060008060808587031215612d7957612d78612b61565b5b600085013567ffffffffffffffff811115612d9757612d96612b66565b5b612da387828801612d31565b945050602085013567ffffffffffffffff811115612dc457612dc3612b66565b5b612dd087828801612d31565b935050604085013567ffffffffffffffff811115612df157612df0612b66565b5b612dfd87828801612d31565b925050606085013567ffffffffffffffff811115612e1e57612e1d612b66565b5b612e2a87828801612d31565b91505092959194509250565b600073ffffffffffffffffffffffffffffffffffffffff82169050919050565b6000612e6182612e36565b9050919050565b612e7181612e56565b8114612e7c57600080fd5b50565b600081359050612e8e81612e68565b92915050565b600060208284031215612eaa57612ea9612b61565b5b6000612eb884828501612e7f565b91505092915050565b612eca81612e56565b82525050565b600081519050919050565b600082825260208201905092915050565b60005b83811015612f0a578082015181840152602081019050612eef565b60008484015250505050565b6000612f2182612ed0565b612f2b8185612edb565b9350612f3b818560208601612eec565b612f4481612c23565b840191505092915050565b612f5881612ba3565b82525050565b600081519050919050565b600082825260208201905092915050565b6000819050602082019050919050565b6000612f968383612f4f565b60208301905092915050565b6000602082019050919050565b6000612fba82612f5e565b612fc48185612f69565b9350612fcf83612f7a565b8060005b83811015613000578151612fe78882612f8a565b9750612ff283612fa2565b925050600181019050612fd3565b5085935050505092915050565b600060e0830160008301516130256000860182612ec1565b506020830151848203602086015261303d8282612f16565b91505060408301516130526040860182612f4f565b5060608301516130656060860182612f4f565b5060808301516130786080860182612f4f565b5060a083015184820360a08601526130908282612faf565b91505060c083015184820360c08601526130aa8282612faf565b9150508091505092915050565b600060208201905081810360008301526130d1818461300d565b905092915050565b600080600080600060a086880312156130f5576130f4612b61565b5b600086013567ffffffffffffffff81111561311357613112612b66565b5b61311f88828901612d31565b955050602061313088828901612bc4565b945050604086013567ffffffffffffffff81111561315157613150612b66565b5b61315d88828901612d31565b935050606061316e88828901612b8e565b925050608086013567ffffffffffffffff81111561318f5761318e612b66565b5b61319b88828901612d31565b9150509295509295909350565b600081519050919050565b600082825260208201905092915050565b6000819050602082019050919050565b60006080830160008301516131ec6000860182612ec1565b5060208301516131ff6020860182612f4f565b50604083015184820360408601526132178282612f16565b915050606083015184820360608601526132318282612f16565b9150508091505092915050565b600061324a83836131d4565b905092915050565b6000602082019050919050565b600061326a826131a8565b61327481856131b3565b935083602082028501613286856131c4565b8060005b858110156132c257848403895281516132a3858261323e565b94506132ae83613252565b925060208a0199505060018101905061328a565b50829750879550505050505092915050565b600060208201905081810360008301526132ee818461325f565b905092915050565b600081519050919050565b600082825260208201905092915050565b6000819050602082019050919050565b600061332e8383612ec1565b60208301905092915050565b6000602082019050919050565b6000613352826132f6565b61335c8185613301565b935061336783613312565b8060005b8381101561339857815161337f8882613322565b975061338a8361333a565b92505060018101905061336b565b5085935050505092915050565b600060c0830160008301516133bd6000860182612ec1565b50602083015184820360208601526133d58282612f16565b915050604083015184820360408601526133ef8282612f16565b915050606083015184820360608601526134098282612f16565b915050608083015184820360808601526134238282613347565b91505060a083015161343860a0860182612f4f565b508091505092915050565b6000602082019050818103600083015261345d81846133a5565b905092915050565b6000806000806080858703121561347f5761347e612b61565b5b600085013567ffffffffffffffff81111561349d5761349c612b66565b5b6134a987828801612d31565b94505060206134ba87828801612bc4565b93505060406134cb87828801612bc4565b925050606085013567ffffffffffffffff8111156134ec576134eb612b66565b5b6134f887828801612d31565b91505092959194509250565b600082825260208201905092915050565b6000613520826132f6565b61352a8185613504565b935061353583613312565b8060005b8381101561356657815161354d8882613322565b97506135588361333a565b925050600181019050613539565b5085935050505092915050565b6000602082019050818103600083015261358d8184613515565b905092915050565b600081519050919050565b600082825260208201905092915050565b6000819050602082019050919050565b60006135cd8383612f16565b905092915050565b6000602082019050919050565b60006135ed82613595565b6135f781856135a0565b935083602082028501613609856135b1565b8060005b85811015613645578484038952815161362685826135c1565b9450613631836135d5565b925060208a0199505060018101905061360d565b50829750879550505050505092915050565b61366081612b6b565b82525050565b60006101408301600083015161367f6000860182612ec1565b50602083015184820360208601526136978282612f16565b91505060408301516136ac6040860182612f4f565b50606083015184820360608601526136c48282612f16565b915050608083015184820360808601526136de82826135e2565b91505060a083015184820360a08601526136f882826135e2565b91505060c083015161370d60c0860182613657565b5060e083015184820360e08601526137258282612faf565b9150506101008301518482036101008601526137418282612faf565b91505061012083015184820361012086015261375d8282612faf565b9150508091505092915050565b600060208201905081810360008301526137848184613666565b905092915050565b6000602082840312156137a2576137a1612b61565b5b60006137b084828501612bc4565b91505092915050565b600080604083850312156137d0576137cf612b61565b5b60006137de85828601612bc4565b92505060206137ef85828601612b8e565b9150509250929050565b600082825260208201905092915050565b600061381582612f5e565b61381f81856137f9565b935061382a83612f7a565b8060005b8381101561385b5781516138428882612f8a565b975061384d83612fa2565b92505060018101905061382e565b5085935050505092915050565b60006020820190508181036000830152613882818461380a565b905092915050565b600080604083850312156138a1576138a0612b61565b5b60006138af85828601612e7f565b925050602083013567ffffffffffffffff8111156138d0576138cf612b66565b5b6138dc85828601612d31565b9150509250929050565b600081519050919050565b600082825260208201905092915050565b6000819050602082019050919050565b60006101008301600083015184820360008601526139308282612f16565b91505060208301516139456020860182612ec1565b506040830151848203604086015261395d8282612f16565b91505060608301516139726060860182612f4f565b5060808301516139856080860182612f4f565b5060a083015161399860a0860182612f4f565b5060c08301516139ab60c0860182612f4f565b5060e083015184820360e08601526139c38282613347565b9150508091505092915050565b60006139dc8383613912565b905092915050565b6000602082019050919050565b60006139fc826138e6565b613a0681856138f1565b935083602082028501613a1885613902565b8060005b85811015613a545784840389528151613a3585826139d0565b9450613a40836139e4565b925060208a01995050600181019050613a1c565b50829750879550505050505092915050565b60006020820190508181036000830152613a8081846139f1565b905092915050565b60008060408385031215613a9f57613a9e612b61565b5b600083013567ffffffffffffffff811115613abd57613abc612b66565b5b613ac985828601612d31565b925050602083013567ffffffffffffffff811115613aea57613ae9612b66565b5b613af685828601612d31565b9150509250929050565b7f4e487b7100000000000000000000000000000000000000000000000000000000600052602260045260246000fd5b60006002820490506001821680613b4757607f821691505b602082108103613b5a57613b59613b00565b5b50919050565b60008190508160005260206000209050919050565b60006020601f8301049050919050565b600082821b905092915050565b600060088302613bc27fffffffffffffffffffffffffffffffffffffffffffffffffffffffffffffffff82613b85565b613bcc8683613b85565b95508019841693508086168417925050509392505050565b6000819050919050565b6000613c09613c04613bff84612ba3565b613be4565b612ba3565b9050919050565b6000819050919050565b613c2383613bee565b613c37613c2f82613c10565b848454613b92565b825550505050565b600090565b613c4c613c3f565b613c57818484613c1a565b505050565b5b81811015613c7b57613c70600082613c44565b600181019050613c5d565b5050565b601f821115613cc057613c9181613b60565b613c9a84613b75565b81016020851015613ca9578190505b613cbd613cb585613b75565b830182613c5c565b50505b505050565b600082821c905092915050565b6000613ce360001984600802613cc5565b1980831691505092915050565b6000613cfc8383613cd2565b9150826002028217905092915050565b613d1582612ed0565b67ffffffffffffffff811115613d2e57613d2d612c34565b5b613d388254613b2f565b613d43828285613c7f565b600060209050601f831160018114613d765760008415613d64578287015190505b613d6e8582613cf0565b865550613dd6565b601f198416613d8486613b60565b60005b82811015613dac57848901518255600182019150602085019450602081019050613d87565b86831015613dc95784890151613dc5601f891682613cd2565b8355505b6001600288020188555050505b505050505050565b7f4e487b7100000000000000000000000000000000000000000000000000000000600052601160045260246000fd5b6000613e1882612ba3565b9150613e2383612ba3565b9250828201905080821115613e3b57613e3a613dde565b5b92915050565b7f4e487b7100000000000000000000000000000000000000000000000000000000600052603260045260246000fd5b600082825260208201905092915050565b7f4163636f756e74206973206e6f7420656c696769626c6520746f20636c61696d60008201527f20676976656e20706f6c69637900000000000000000000000000000000000000602082015250565b6000613edd602d83613e70565b9150613ee882613e81565b604082019050919050565b60006020820190508181036000830152613f0c81613ed0565b905091905056fea2646970667358221220ad63077ca0ddbe4da176c75a392f0aa24169dcb987e97e593bb1556c9366693664736f6c63430008180033",
  "linkReferences": {},
  "deployedLinkReferences": {}
}